:10098800013E00013F00202008003F0006005B00F8
:100998004F0066006D007D0007007F006F00770044
:1009A8007C0039005E00790071102900FE00FD000E
:1009B800FB00F700EF00DF00BF007F013B000140B4
:1009C80000014300013D00014100014400014200D3
:0309D800013C00DF
:0F0AA200E53B25E02408F808E6F5807F017E009B
:100AB100E4FDFCC3ED9FEE6480F8EC648098500780
:100AC1000DBD00010C80ECE4FFFE0FBF00010EEF35
:060AD10064784E70F5226E
:100800007590FF75A080758080E53C703C2090104D
:100810007F0AFE120AB12090703090FD053E80697B
:100820002091117F0A7E00120AB120915C3091FD67
:10083000153E80552092527F0A7E00120AB1209206
:10084000483092FDE4F53E8040E53C6401703A207A
:1008500090107F0AFE120AB120902E3090FD053FC5
:1008600080272091117F0A7E00120AB120911A3050
:1008700091FD153F80132092107F0A7E00120AB16D
:100880002092063092FDE4F53F75A08075808022AD
:100A69007590FF209315120AAD2093053093FD056B
:100A790042E542C394024003E4F5427590FF209495
:100A890015120AAD2094053094FD053CE53CC3944C
:090A9900024003E4F53C020800F0
:100A2A00E53E75F06484F53BE53E75F06484E5F0D7
:100A3A0075F00A84F540E53E75F00A8485F043E5D1
:100A4A003F75F06484F53DE53F75F06484E5F07523
:0F0A5A00F00A84F541E53F75F00A8485F04422E7
:1009DC00E5427021E53C700C75A0F7851D807F0108
:1009EC00FE120AB1E53C6401703375A0EF851F80DF
:1009FC007F01FE8025E54264017022E53C700C7598
:100A0C00A0EF851D807F01FE120AB1E53CB4010DFB
:0E0A1C0075A0F7851F807F017E00120AB122AF
:10091C00120A2A1209DCE542702D75A0FE120AA2F9
:10092C0075A0FDE540120AA475A0FBE543120AA4CC
:10093C0075A0DFE53D120AA475A0BFE541120AA41B
:10094C0075A07FE5448031E5426401702E75A0FEF0
:10095C00E53D120AA475A0FDE541120AA475A0FBA1
:10096C00E544120AA475A0DF120AA275A0BFE540E7
:0C097C00120AA475A07FE543120AA42211
:010AEA0022E9
:100AD700E4F53EF53F7590FF75B03F12091C120A09
:030AE7006980F82B
:0300000002089063
:0C089000787FE4F6D8FD7581440208D79B
:10089C00020AD7E493A3F8E493A34003F68001F291
:1008AC0008DFF48029E493A3F85407240CC8C3335D
:1008BC00C4540F4420C8834004F456800146F6DF2C
:1008CC00E4800B0102040810204080900988E47E2B
:1008DC00019360BCA3FF543F30E509541FFEE49321
:1008EC00A360010ECF54C025E060A840B8E493A3E8
:1008FC00FAE493A3F8E493A3C8C582C8CAC583CA13
:10090C00F0A3C8C582C8CAC583CADFE9DEE780BECA
:0109DB00001B
:00000001FF
